:020000020000FC
:100000000C946300FFFFFFFFFFFFFFFFFFFFFFFFF9
:10001000FFFFFFFFFFFFFFFFFFFFFFFFFFFFFFFFF0
:10002000FFFFFFFFFFFFFFFFFFFFFFFFFFFFFFFFE0
:10003000FFFFFFFFFFFFFFFFFFFFFFFFFFFFFFFFD0
:10004000FFFFFFFF0C94E300FFFFFFFFFFFFFFFF39
:10005000FFFFFFFF4001AFB6010116940794302463
:10006000002407942024032C06942024322400909A
:10007000F0201090F120400C511CB090F220009024
:10008000F32007FC03C05B9CC12C02C02B9CC12C3D
:100090000090F4201090F520600C711CB090F620B8
:1000A0000090F72007FC06C07B9CC10C40F4CC24D8
:1000B000C09405C02B9CC10C10F4CC24C094C8B8CB
:1000C0000401AFBE18951124A0EFB0E28FE091E0DB
:1000D0001D920197E9F780E092E08EBB9ABD1BBCB0
:1000E0001092D9211092F0201092F1201092F2205B
:1000F0001092F3201092F4201092F5201092F62026
:100100001092F72082EE99E88093F8209093F920DE
:100110008093FA209093FB201092FE201092FF20F3
:1001200091E0292E33241092D4210E94B12A00C0DC
:100130009FEF91B997B9269A6C9A93E093BBA29AD4
:100140009FE797BD92E090936E0082E092E084BDBD
:1001500095BD94E496BD8FEF91E0909389008093D4
:10016000880082EC91E090938B0080938A0092E06B
:1001700090936F0083E399E18093800090938100D6
:1001800087E194E0909399008093980083E194E054
:1001900090939B0080939A0083E39CE1809390006E
:1001A000909391008FEF91E090938500809384006D
:1001B00083E194E0909395008093940091E093BF45
:1001C00078948895FECF9F919F919F918091940004
:1001D0009091950070E08F3397070AF402C172E0A6
:1001E000833D970708F0FDC0AEB3BAB54BB54F7766
:1001F0000D9002B80D9002B80D9002B80D9002B8A3
:100200000D9002B80D9002B80D9002B80D9002B892
:100210000D9002B80D9002B80D9002B80D9002B882
:100220000D9002B80D9002B80D9002B80D9002B872
:100230000D9002B80D9002B80D9002B80D9002B862
:100240000D9002B80D9002B80D9002B80D9002B852
:100250000D9002B80D9002B80D9002B80D9002B842
:100260000D9002B80D9002B80D9002B80D9002B832
:100270000D9002B80D9002B80D9002B80D9002B822
:100280000D9002B80D9002B80D9002B80D9002B812
:100290000D9002B80D9002B80D9002B80D9002B802
:1002A0000D9002B80D9002B80D9002B80D9002B8F2
:1002B0000D9002B80D9002B80D9002B80D9002B8E2
:1002C0000D9002B80D9002B80D9002B80D9002B8D2
:1002D0000D9002B80D9002B80D9002B80D9002B8C2
:1002E0000D9002B80D9002B80D9002B80D9002B8B2
:1002F0000D9002B80D9002B80D9002B80D9002B8A2
:100300000D9002B80D9002B80D9002B80D9002B891
:100310000D9002B80D9002B80D9002B80D9002B881
:100320000D9002B80D9002B80D9002B80D9002B871
:100330000D9002B80D9002B80D9002B80D9002B861
:100340000D9002B80D9002B80D9002B80D9002B851
:100350000D9002B80D9002B80D9002B80D9002B841
:100360000D9002B80D9002B80D9002B80D9002B831
:100370000D9002B80D9002B80D9002B80D9002B821
:100380000D9002B80D9002B80D9002B80D9002B811
:100390000D9002B80D9002B80D9002B80D9002B801
:1003A0000D9002B80D9002B80D9002B80D9002B8F1
:1003B0000D9002B80D9002B80D9002B80D9002B8E1
:1003C0000D9002B80D9002B80D9002B80D9002B8D1
:1003D00000004A9512B81AF4AEBBBABD44E04BBD5A
:1003E0005DC04BB547FD4BC040684BBD59D08091B7
:1003F000022190910321709104210196711D809337
:100400000221909303217093042110926F0078943D
:1004100075D290910621963011F40C94781697308D
:1004200011F40C94161F983011F40C94F5219930A6
:1004300011F40C9479249A3011F40C94E9259B3032
:1004400011F40C948E27903011F40C94D22A95302C
:1004500011F40C947C2B913011F40C94A92C923053
:1004600011F40C940F2D943011F40C94432D93300F
:1004700011F40C946E2D9C3011F40C94E728F89430
:100480001092D9219BB5907895609BBD80E092E059
:100490008EBB9ABDB19A92E090936F00789491CE02
:1004A0008091F320982F907629F19036A1F46091F5
:1004B000F0207091F120472F5527440F9091022191
:1004C00092FD419592FD5095640F751F6093F02049
:1004D0007093F1200FC0903231F49091F2209C5F24
:1004E0009093F22007C09091F220945008F499273D
:1004F0009093F220982F807E9F7111F0915029F4F3
:100500001092F2201092F32003C0892B8093F320E5
:100510008091F720982F907629F19036A1F4609180
:10052000F4207091F520472F5527440F9091022118
:1005300092FD419592FD5095640F751F6093F420D4
:100540007093F5200FC0903231F49091F6209C5FAB
:100550009093F62007C09091F620945008F49927C4
:100560009093F620982F807E9F7111F0915029F47E
:100570001092F6201092F72003C0892B8093F72069
:100580000895E3E0EBBF9091F3209923D1F5E0913A
:10059000F820F091F9204791442321F5479142300A
:1005A00039F0413079F447914093FC203196F3CFF4
:1005B0009091FC2091509093FC204791579191117C
:1005C000FA01E9CF922D967009F09250E90FF11DD2
:1005D000879197918093F8209093F920FC0147919F
:1005E000442379F05791679177914093F32050938A
:1005F000F2206093F0207093F120E093F820F093C4
:10060000F9209091F7209923D1F5E091FA20F0910B
:10061000FB204791442321F54791423039F0413086
:1006200079F447914093FD203196F3CF9091FD20CE
:1006300091509093FD20479157919111FA01E9CF84
:10064000922D967009F09250E90FF11D87919791C4
:100650008093FA209093FB20FC014791442379F08A
:100660005791679177914093F7205093F6206093CC
:10067000F4207093F520E093FA20F093FB20089586
:10068000E3E0EBBF9091FE209923F9F08091F320F5
:100690008823D9F4E2E5F7E984E0899FE00DF11DB4
:1006A00011248791882379F08093F3208791809398
:1006B000F22087918093F02087918093F120939589
:1006C0009093FE2002C01092FE209091FF2099236B
:1006D000F9F08091F7208823D9F4E2E5F7E984E086
:1006E000899FE00DF11D11248791882379F0809373
:1006F000F72087918093F62087918093F42087914B
:100700008093F52093959093FF2002C01092FF20D4
:1007100008950090FE20091669F0002019F49093C6
:10072000FE2008950090FF20091621F0002011F40A
:100730009093FF2008950090FE20091639F00020C4
:1007400019F49093FE2008959093FF200895082EA9
:1007500089E0182E881B991F1A9409F40895881FA0
:10076000801918F4800D8894F6CF0894F4CF0B010B
:100770006627771B881F991F661F771F60197109ED
:1007800020F4600D711D889401C00894881F991F82
:10079000661F771F6019710920F4600D711D889420
:1007A00001C00894881F991F661F771F601971097F
:1007B00020F4600D711D889401C00894881F991F52
:1007C000661F771F6019710920F4600D711D8894F0
:1007D00001C00894881F991F661F771F601971094F
:1007E00020F4600D711D889401C00894881F991F22
:1007F000661F771F6019710920F4600D711D8894C0
:1008000001C00894881F991F661F771F601971091E
:1008100020F4600D711D889401C00894881F991FF1
:10082000661F771F6019710920F4600D711D88948F
:1008300001C00894881F991F661F771F60197109EE
:1008400020F4600D711D889401C00894881F991FC1
:10085000661F771F6019710920F4600D711D88945F
:1008600001C00894881F991F661F771F60197109BE
:1008700020F4600D711D889401C00894881F991F91
:10088000661F771F6019710920F4600D711D88942F
:1008900001C00894881F991F661F771F601971098E
:1008A00020F4600D711D889401C00894881F991F61
:1008B000661F771F6019710920F4600D711D8894FF
:1008C00001C00894881F991F661F771F601971095E
:1008D00020F4600D711D889401C00894881F991F31
:1008E000661F771F6019710920F4600D711D8894CF
:1008F00001C00894881F991F112408959091012127
:10090000909300219927A098A19AA09A87E00000CF
:100910008A95E9F70000000000000000A098929B73
:10092000906183E000008A95E9F700000000000074
:100930000000A19883E000008A95E9F7000000001C
:1009400000000000A19A83E000008A95E9F700000A
:10095000000000000000929B9062A19883E00000DC
:100960008A95E9F70000000000000000A19A83E0EA
:1009700000008A95E9F70000000000000000929B4B
:100980009068A19883E000008A95E9F700000000D4
:1009900000000000A19A83E000008A95E9F70000BA
:1009A000000000000000929B9064A19883E000008A
:1009B0008A95E9F70000000000000000A19A83E09A
:1009C00000008A95E9F70000000000000000929BFB
:1009D0009460A19883E000008A95E9F70000000088
:1009E00000000000A19A83E000008A95E9F700006A
:1009F000000000000000929B9160A19883E000003D
:100A00008A95E9F70000000000000000A19A83E049
:100A100000008A95E9F70000000000000000929BAA
:100A20009860A19883E000008A95E9F70000000033
:100A300000000000A19A83E000008A95E9F7000019
:100A4000000000000000929B9260A19883E00000EB
:100A50008A95E9F70000000000000000A19A83E0F9
:100A600000008A95E9F70000000000000000909364
:100A700001210895813019F090E151E002C09050B9
:100A800054E0579F900D54E1659F900D50E9959F5C
:100A9000F001112452E05BBFE050F04008956A95E8
:100AA000D2F0813019F4905054E007C0833019F42B
:100AB000965F54E002C098E051E070FD950F50E55C
:100AC000569FF0011124990F990FE90FF11D52E083
:100AD0005BBFE05CFA4908956A950AF40895813095
:100AE00019F090E151E002C0905054E0759F900DD4
:100AF000990F990F50E5569FF0011124E90FF11D50
:100B000052E05BBFE05CFA490895E1E0EBBF488149
:100B1000542F4093DC216A816038880B809599813D
:100B2000960F481F960F481F960F481F99834883BA
:100B3000862F67FD819596EE899F812D112467FD93
:100B40008195682F6A83403F10F4443E08F0089571
:100B50007B814A5F765FE0910721F09108218BEA63
:100B6000789F812D1124869586958695972F7CE018
:100B7000789F9019112474E1789FE00DF11D1124E4
:100B80007BEA479F712D1124769576957695842F73
:100B90004CE0479F80191124E70FF11D4691473A19
:100BA00008F033C0473010F44FEF1AC04F3030F424
:100BB0008B5081959B5091954FEF12C0473120F497
:100BC0009B50919541E00CC04E3120F48B508195A3
:100BD00041E006C06595659561956A83588315C0A7
:100BE000890F8C3090F47D81CB0185958595959505
:100BF0009595681B791B6A8347FD6195760F1BF4F9
:100C00007FE767FD70E87D8358834B81542F4093C5
:100C1000DD216D816038880B80959C81960F481F7F
:100C2000960F481F960F481F9C834B83862F67FDA6
:100C3000819596EE899F812D112467FD8195682FFE
:100C40006D83443B10F4483A08F008957881465F7C
:100C50007A5FE0910721F09108219BEA799F912D1D
:100C60001124969596959695872F7CE0799F80190B
:100C70001124E90FF11D7BEA479F712D1124769510
:100C800076957695942F4CE0479F9019112444E176
:100C9000749FE00DF11D11244691473A08F033C0CE
:100CA000473010F44FEF1AC04F3030F48B5081951D
:100CB0009B5091954FEF12C0473120F49B50919576
:100CC00041E00CC04E3120F48B50819541E006C0CC
:100CD0006595659561956D835B8315C0890F8C3033
:100CE00090F47A81CB018595859595959595681BAE
:100CF000791B6D8347FD6195760F1BF47FE767FDD8
:100D000070E87A835B83E0910721F0910821EE5926
:100D1000FE4F88819B8180509C5FA6E04791679140
:100D200077914A95E2F14231B8F5681B562F08F4E5
:100D30005195791B072E08F40194500D08F45FEFCC
:100D4000573050F5772321F48091DC218883089572
:100D5000662321F49091DD219B830895562F572718
:100D60006A817D8165957595CB0157FF9195690FD6
:100D70001BF46FE797FD60E857FF8195780F1BF430
:100D80007FE787FD70E86A837D838091DC21909105
:100D9000DD2188839B830895AA9509F0BFCF08952C
:100DA000452F487341F1483041F44091022147708A
:100DB00011F544E052FD48E017C0403131F4409154
:100DC00002214770C1F445E00FC0483131F4409131
:100DD0000221477081F445E007C0403259F4409148
:100DE0000221477041F447E05395352F377011F0D9
:100DF000341708F05527603059F49C0127FD2195E0
:100E000037FD3195230F2E31C8F161E07727089522
:100E10006130C1F49C0127FD219537FD3195230FE9
:100E200071F030910221243628F4377039F573952A
:100E300073700895337011F573957370089560E0C1
:100E400077270895633081F4309102213770B1F42F
:100E50007395743098F0882329F4992319F460E08D
:100E600077270CC061E07727623041F4309102218E
:100E700033707395743010F061E077270895A030D7
:100E800009F47D5FA13009F46D5FA23009F473505D
:100E9000A33009F46350681B67FD6195791B77FDEA
:100EA0007195962F970F08959A95AAF0E0E0EBBF01
:100EB000EAEEFAE68CE0899FE00DF11D9691907CB8
:100EC00092959695969593958AE0899F16940794A6
:100ED00011248695080E089590910221939597709C
:100EE00009F00895C5E5D1E2B6E09881913041F16D
:100EF0009A9532F18981782F807E803609F57C7150
:100F00007430F1F4E0E0EBBFEAE8F3EA80E1899FB6
:100F1000E00DF11D11249691903091F4CF0132969D
:100F200066916A956AF0E0E0EBBFEAEEFAE67CE0F3
:100F3000679FE00DF11D112476917370703009F0F8
:100F400071C0E0E0EBBFFC016A817D8180912821C6
:100F500090912B21A981A3700E943F07A92FBF0167
:100F6000329696910E945407FB01A01548F76091B4
:100F70003721687319F468E0609337213B96A69196
:100F80003B978FE0010108220A1630F0012C08225D
:100F90000A1610F00A2E06941124A00D6091332138
:100FA0006A9572F0E0E0EBBFE1EFFAE67CE0679F64
:100FB000E00DF11D112496919F70A91B08F4A2E089
:100FC000A395809140218A1B8093402109F030F441
:100FD0001092402190E00E94A92728C06A2F660F36
:100FE000660F6C5E0BF46FE78A8190912821891758
:100FF00008F0619590912A21960F1BF49FE767FDF9
:1010000090E890932A218D8190912B21891708F0E7
:10101000A19590912D219A0F1BF49FE7A7FD90E8D1
:1010200090932D212A96BA9509F05FCF089590915B
:101030003721987309F00895C7EBD1E264E0888105
:10104000887399F08981827081F08A81909128213A
:10105000891B87FD8195883040F48B8190912B21ED
:10106000891B87FD8195883020F024966A9539F791
:10107000089580913721887319F488E0809337218F
:10108000998192959F708FE001010822091630F036
:10109000012C0822091610F0092E06941124900D37
:1010A000709133217A9572F0E0E0EBBFE1EFFAE660
:1010B0008CE0789FE00DF11D112486918F70981BB4
:1010C00008F492E0939580914021891B8093402100
:1010D00009F058F61092402190E00E94A927089547
:1010E00098819923C9F1909102219770A9F598856B
:1010F0009F3F91F190913521933071F59091362178
:10110000913051F56091282170912B218A819D8128
:10111000A09134210E943F07A92FBF019091322155
:101120000E945407FB01A015B8F4909132219A95C2
:101130009AF0BF01E0E0EBBFEAEEFAE68CE0899FAF
:10114000E00DF11D1124969137968691E0E0EBBFFA
:10115000FB019370903009F056C06985687361F4A3
:1011600068E069876691623039F43F9666913F97EF
:10117000662311F0688347C0982F92959F708FE087
:1011800001010822091630F0012C0822091610F07E
:10119000092E06941124900D80913C218595980F7D
:1011A0008691803011F083E003C03C9686913C9795
:1011B000981B08F4992793958885891B888710F4D4
:1011C000ADD021C0792F770F770F7C5E0BF47FE7CE
:1011D000672F809128219A81891708F061959C8159
:1011E000960F1BF49FE767FD90E89C8380912B216D
:1011F0009D81891708F071959F81970F1BF49FE7D8
:1012000077FD90E89F8308959881992341F091306C
:1012100031F098859F3F19F09985987309F00895EA
:10122000DF01E7EBF1E264E08081887389F081817E
:10123000817071F082819A81891B87FD8195883048
:1012400038F483819D81891B87FD8195883008F062
:101250005FC07985787311F478E07987CF01FD015B
:1012600076913F960690FC01723021F4002011F037
:10127000088252C09181892F92959F70827079F572
:101280008FE001010822091630F0012C082209160E
:1012900010F0092E06941124900D709132217A9548
:1012A000F2F0EF93FF93E0E0EBBFEAEEFAE68CE0BA
:1012B000789FE00DF11D1124869137967691FF916C
:1012C000EF918370813059F480913F21859578703A
:1012D00029F470913C217595870F8595980F0E2EF6
:1012E0007F2FE0E0EBBFFD018691803011F083E0BD
:1012F00002C03C968691E02DF72F981B08F49927A1
:1013000093958885891B888718F4FD0107D004C050
:1013100034966A9509F088CFFD0108959DE30E94F7
:101320009B03BF019691913079F0903009F038C05D
:101330003D96922D9370933008F09927E90FF11D97
:101340009691992349F41AC0399696916F937F9399
:101350000E942F247F916F91EFE9F1E286E00080F7
:10136000002049F4908311829A819D5F92839D8130
:10137000985F938303C034968A9589F7FB01969111
:10138000903071F4399676913997809143219091FC
:101390004421870F911D8093432190934421BF01E5
:1013A00098819A95892F969596959695E4E1F1E224
:1013B000E90FF11D008091E0877019F0990F8A956F
:1013C000E9F709260082FB019691913019F09230DD
:1013D00009F006C0389696913897992309F008D0FD
:1013E000E0E0EBBFFB0191E098831C821F8208952F
:1013F000DE01C5E5D1E246E05881552369F02A9621
:101400004A95D1F7C5E5D1E246E05881513021F047
:101410002A964A95D1F72DC00E94AB1DE1E0EBBFA3
:10142000E0910721F0910821E65BFE4F80910921B0
:10143000845C90910A219F5D479157914A835D8317
:10144000481B08F44195591B08F45195540F08F4B2
:101450005FEF052E47915791841B08F48195951BEA
:1014600008F49195980F08F49FEF091610F44A8339
:101470005D83ED010895773288F011F478E537C087
:10148000793411F470E033C07A3B11F47AE02FC064
:10149000703B11F475E62BC0763CE1F140E9749F96
:1014A000F0014CE0549FE00DF11D1124E058FC4880
:1014B00063951AC007900D9207900D9207900D92B8
:1014C00007900D9207900D9207900D9207900D9244
:1014D00007900D9207900D9207900D9207900D9234
:1014E00007900D92A459BF4F6A9521F7089563950F
:1014F0000EC07D937D937D937D937D937D937D93AE
:101500007D937D937D937D937D93A459BF4F6A9581
:1015100081F70895639519C05370503011F47DE13F
:1015200005C0533010F474E101C07AE07D937D93DF
:101530007D937D937D937D937D937D937D937D932B
:101540007D937D93A459BF4F53956A9529F70895CC
:1015500040E9949FF0014CE0549FE00DF11D1124EF
:10156000E70FF11DE058FC487CE0781B58E7581B5A
:1015700080EC9AE0870F911D870F911D63951CC029
:1015800007900D9207900D9207900D9207900D9283
:1015900007900D9207900D9207900D9207900D9273
:1015A00007900D9207900D9207900D9207900D9263
:1015B000E70FF11DA50FB11D6A9519F08F939F9349
:1015C0001F920895BE01ED0187EC9CE00790081280
:1015D0000882079008120982079008120A82079071
:1015E00008120B82079008120C82079008120D82D5
:1015F000079008120E82079008120F8207900812B7
:101600000886079008120986079008120A86079034
:1016100008120B86C858DF4F9A95C1F6EB01089562
:10162000CF93DF93E80FF11D569FE00DF11D1124BC
:10163000591B8CE0891BED01C81BD040982F890FE6
:10164000890F9927895D944F739567EC28C007909F
:1016500006120882079006120982079006120A8273
:10166000079006120B82079006120C820790061252
:101670000D82079006120E82079006120F820790C5
:1016800006120886079006120986079006120A8637
:10169000079006120B86E50FF11DC858DF4F7A95AB
:1016A00021F08F939F931F920895DF91CF9108951A
:1016B000CF93DF93569FE00DF11D1124591BE50FC9
:1016C000F11DE81BF1098CE0891BED01982F890FB2
:1016D000890F99278159944F739567ECE0CF079054
:1016E00006120B86079006120A86079006120986D4
:1016F000079006120886079006120F8207900612BE
:101700000E82079006120D82079006120C82079037
:1017100006120B82079006120A82079006120982AF
:10172000079006120882E50FF11DC858DF4F7A9521
:1017300021F08F939F931F920895DF91CF91089589
:10174000CF93DF93E80FF11D670F569FE019F10962
:1017500088E7789FA00DB11D1124A857B040591BF0
:101760008CE0891BED01C81BD109982F890F890FC7
:1017700099278254944F739567EC91CF0790061286
:101780000882079006120982079006120A820790C3
:1017900006120B82079006120C82079006120D8229
:1017A000079006120E82079006120F82079006120B
:1017B0000886079006120986079006120A86079087
:1017C00006120B86E50FF11DC857D0407A9521F01F
:1017D0008F939F931F920895DF91CF910895CF9398
:1017E000DF93670F569FE019F10988E7789FA00DF6
:1017F000B11D1124A857B040591B8CE0891BED0185
:10180000982F890F890F9927875F934F739567ECFE
:1018100046CF079006120B86079006120A8607909D
:1018200006120986079006120886079006120F8294
:10183000079006120E82079006120D82079006127C
:101840000C82079006120B82079006120A820790FC
:1018500006120982079006120882E50FF11DC8578B
:10186000D0407A9521F08F939F931F920895DF9136
:10187000CF910895DF92EF92FF920F931F93CF9332
:10188000DF937A018B019C0181E08BBF002309F477
:1018900044C0EE2009F48DC0E90144E1419FC00D30
:1018A000D11D1124CF0DD11D502F6CE0601B7E2D5A
:1018B0008CE08E19FE019691A0E0B2E049DE2A96F6
:1018C000502F6CE0601B77278E2DFE019691A8E7C4
:1018D000B2E0A81BB1093CDECC59DF4F5527602F81
:1018E00077278E2DFE019691A8E9BEE148E7409F3B
:1018F000A019B1091124AE19B1092ADE2A9755277A
:10190000602F7E2D8CE08E19FE019691A0E2BEE143
:1019100048E7409FA019B1091BDEEE2009F446C03C
:10192000A0E0B2E045E0D42E44E1419FE901C00DC2
:10193000D11D1124CF0DD11D002349F04CE0401BD7
:1019400058E7459FA00DB11D1124DA9464965527E0
:101950006CE07E2D8CE08E19FE019691F9DD649687
:10196000DA94A9F7A8E7B2E0AE19B10945E0D42EA0
:1019700044E1419FE901C00DD11D1124CF0DD11DBE
:101980002A96002349F04CE0401B58E7459FA00DE4
:10199000B11D1124DA94649655276CE077278E2DBB
:1019A000FE019691D5DD6496DA94B1F7002309F42F
:1019B0002EC080E092E04AE0D42E44E1419FE9014C
:1019C000C00DD11D1124CF0DD11DEE2031F04CE002
:1019D0004E19840F911D2196DA94502F6CE0601BF4
:1019E000FE017691DC0147DD5527602FFE01EC59A1
:1019F000FF4F7691DC01A05EB34E48E7049FA0192B
:101A0000B109112438DD0C962196DA9431F7A0E063
:101A1000B2E08AE095E044E1419FE901C00DD11DAB
:101A20001124CF0DD11D002349F048E75CE0501B85
:101A3000459FA00DB11D112464969A95EE2031F0BA
:101A40004CE04E19A40FB11D21968A95D82E7C0129
:101A50008D01CD01C80150E06CE0FE017691DC0102
:101A60000ADD0C962196EA94B1F700561A4FED2C38
:101A700044E14D19C40FD11DFA9461F7DF91CF9164
:101A80001F910F91FF90EF90DF900895A0E0B2E0DA
:101A90006C307607B9F420910A21592F521B90F02F
:101AA000503380F420910921482F421B58F04C36C6
:101AB00048F4A40FB11D48E7459FA00DB11D1124A6
:101AC00081DD0895472F440F440F603810F04160C6
:101AD0006195703810F0426071954F9340910A21E2
:101AE000941B38F0943B28F448E7949FA00DB11D57
:101AF0001124472F419594178CF19C337CF5873F37
:101B000030F440910921841B10F0A80FB11D462F1D
:101B1000419584171CF188370CF59C01562F6627D8
:101B20008827952F20301CF4822F8195920F48E74B
:101B3000451B241714F098E7921B30301CF4632FD8
:101B40006195730F4CE3471B341714F07CE3731B50
:101B50004F91342F437021F463DD08954F91089520
:101B6000413011F4A5DD0895359535953195359FB2
:101B7000E00DF11D1124423011F4E2DD08952FDE55
:101B800008950F931F938C017B817230D8F0698187
:101B90006623C1F08C819D810E944F05C801479149
:101BA000579140515450841B950F67917791FB01D9
:101BB00067917791861B61952B81223011F4719585
:101BC000925064DF688167FF0BC06F77E2E0EBBF84
:101BD000E0E0FAE570E9679FE00DF11D112405C012
:101BE0007B818C819D810E943A056CE07CE0C8017C
:101BF0004DDF6A81662391F07B818C819D810E94FB
:101C00006C05C8014791579144505450840F950F6B
:101C100067917791FB016791779138DF6E81C801F9
:101C20006ED07B817230A0F46981662389F08C814B
:101C30009D810E944F05C8014791579144505450CF
:101C4000840F950F67917791FB01679177911EDF64
:101C50001F910F910895688167FF0BC06F77E2E0D5
:101C6000EBBFE0E0FAE570E9679FE00DF11D11249C
:101C700005C070E080E099270E943A055CE0662785
:101C80007CE088279CE0CCDC6A816623D9F070E098
:101C900080E099270E946C059D014791579144501F
:101CA0005450A40FB11D48E75403A00DB11D1124D9
:101CB00067917791FB015791779166278827952F38
:101CC000AFDCD90169816623C9F070E080E0992713
:101CD0000E944F054791579144505450A40FB11D95
:101CE00048E75403A00DB11D112467917791FB01C2
:101CF0005791779166278827952F92DC0895762F44
:101D0000769576957695777009F43DC0562F507C80
:101D10006770E2E0EBBFE8E4F1ED40E1479FE00DE2
:101D2000F11D1124723019F46150B8F42CC07330D5
:101D300019F4615090F427C0743019F4635068F4BA
:101D400022C0763008F06170753019F456FD639545
:101D500004C0763010F056FD6E5F742F660FE60FEC
:101D6000F11D67917691FB0167917791860F970F2F
:101D700067917791453030F0503809F47195503CB7
:101D800009F4619583DE0895992381F09A95E2E044
:101D9000EBBFECEEF7EC64E2969FE00DF11D112431
:101DA00056E0662776E0882796E03ADC0895E0E67C
:101DB000F9E66052660FE60FF11D95918491FD01E1
:101DC00097FF02C0E858FF4F96FF708395FF71831D
:101DD00094FF7283E858FF4F93FF708392FF7183E3
:101DE00091FF7283E858FF4F90FF708387FF7183E4
:101DF00086FF7283E858FF4F85FF708384FF7183ED
:101E000083FF7283E858FF4F82FF708381FF7183E5
:101E100080FF72830895E8E2FAE66052660FE60FEB
:101E2000F11D95918491FD0196FF708395FF71835B
:101E300094FF7283E858FF4F93FF708392FF718382
:101E400091FF7283E858FF4F90FF708387FF718383
:101E500086FF7283E858FF4F85FF708384FF71838C
:101E600083FF728308956DEC569F812D1124869512
:101E7000869586956AE0689F652F60191124582F12
:101E8000605D95DF1497552371F708956DEC569FAB
:101E9000812D11248695869586956AE0689F652F29
:101EA00060191124582F605DB6DF1497552371F720
:101EB0000895EDECFCEC3F9FA0012E9FC0013E9FDA
:101EC000900D411D1124511D2F9F900D411D112476
:101ED000511D5695479556954795569547958AE0D5
:101EE000489FF001589FF00D1124C9018E1B9F0BD4
:101EF0009A01682F605D5BDF14972223D1F63323AC
:101F0000C1F60895EDECFCEC3F9FA0012E9FC001AF
:101F10003E9F900D411D1124511D2F9F900D411D7D
:101F20001124511D569547955695479556954795B9
:101F30008AE0489FF001589FF00D1124C9018E1BC3
:101F40009F0B9A01682F605D66DF14972223D1F6FC
:101F50003323C1F60895452F440FDE0167916030A9
:101F600011F16A3091F06032B1F06936A1F06E3251
:101F700091F0613281F06A3371F0673261F09F0154
:101F800016DFF9011496425048F7452F440FC0530D
:101F9000DD4FDE01E3CF11979F0109DFF9011396B1
:101FA0004150E0F6F2CF08950F901F93182F452F60
:101FB000440FDE01115028F16791603011F16A3051
:101FC00091F06032B1F06936A1F06E3291F0613279
:101FD00081F06A3371F0673261F09F01E8DEF90148
:101FE0001496425038F7452F440FC053DD4FDE01A1
:101FF000E1CF11979F01DBDEF90113964150D0F636
:10200000F2CF812F1F911F92089567EC58E7581B5C
:10201000782F079060110C9211967A95D1F7A50F41
:10202000B11D9A95A9F708958C7F58E7581B782F12
:102030006D936D936D936D937450D1F7A50FB11D92
:102040009A95A9F70895CF93DF93E5E4F1E2990F0C
:10205000E90FF11D81919191882309F454C08A956B
:10206000E2E0EBBFECEEF7EC64E2869FE00DF11DE1
:1020700067E0969F61196A95112476E0ED0187EC7F
:10208000662359F10790902D967B969508129883B8
:102090000790902D967B9695081299830790902D26
:1020A000967B969508129A830790902D967B96952D
:1020B00008129B830790902D967B969508129C831F
:1020C0000790902D967B969508129D83C858DF4FF8
:1020D0007A956A95B9F67723B1F0079008120882CD
:1020E000079008120982079008120A8207900812C6
:1020F0000B82079008120C82079008120D82C858B4
:10210000DF4F7A9551F7DF91CF9108953DDEA153CE
:10211000BD4F60E088E091E087DF08958C7FABEDF4
:10212000B6E1782F7695A71BB10956E7581B6DE1EC
:102130004EE6782F6D936D936D936D936D93745000
:10214000D1F76D93A50FB11D782F6D934D934D93DE
:102150004D934D937450D1F76D93A50FB11D9A9582
:1021600099F7782F6D936D936D936D936D93745074
:10217000D1F76D93C4E4D8E18695C81BD1095EE11F
:102180007727E9DE08958CEE9EE1C0E0D2E007906B
:102190000992079009920790099207900992049773
:1021A000B0F70895E60FF11D68E7689FE00DF11D97
:1021B00011249150C0F0572F50FF03C0079009928F
:1021C0005150515030F007900992079009925250A7
:1021D000D0F7C71BD109C858DF4FE71BF109E858F2
:1021E000FF4F915040F7089540910521682F6750A7
:1021F0004617C8F14817C0F4841B472F672F777024
:102200004873781B08F47727880F880F880F481BBE
:1022100008F44427880F681B10F0681B08F4662731
:10222000607C742B762B1DC04917D8F0692F685F2E
:102230004617C8F4491B972F672F77709873741B44
:1022400008F47727440F440F440F941B08F4992790
:10225000440F641B10F0641B08F46627607C792B24
:10226000762B0E94AB0F089540910521682F67508F
:102270004617E8F14817C8F4481B485F872F672FB7
:1022800077708873741B08F47727440F440F440F4A
:10229000841B08F48827440F641B10F0641B08F4A7
:1022A0006627607C782B762B20C0491710F477279F
:1022B0001CC0692F685F4617D0F4941B985F472FA6
:1022C000672F77704873791B08F47727990F990F58
:1022D000990F491B08F44427990F691B10F0691BDB
:1022E00008F46627607C742B762B0E94AB0F089550
:1022F000209138213091392140913A2150913B2150
:10230000E0E0EBBF60913221662301F16A95EDEECA
:10231000FAE67CE0679FE00DF11D11247791270F0D
:102320001BF42FE777FD20E87791370F1BF43FE789
:1023300077FD30E87791470F1BF44FE777FD40E8D2
:102340007791570F1BF45FE777FD50E860913321D9
:10235000662301F16A95EDEEFAE67CE0679FE00DF9
:10236000F11D11247791270F1BF42FE777FD20E84B
:102370007791370F1BF43FE777FD30E87791470FF0
:102380001BF44FE777FD40E87791570F1BF45FE7A9
:1023900077FD50E862E0A5E4B1E27C91772301F19A
:1023A0007A95EDEEFAE68CE0789FE00DF11D1124B0
:1023B0008791280F1BF42FE787FD20E88791380FBE
:1023C0001BF43FE787FD30E88791480F1BF44FE788
:1023D00087FD40E88791580F1BF45FE787FD50E8C1
:1023E00012966A95D1F6243C0CF424EC2C330CF0B4
:1023F0002CE3343C0CF434EC3C330CF03CE3443C34
:102400000CF444EC4C330CF04CE3543C0CF454EC22
:102410005C330CF05CE320933C2130933D214093EE
:102420003E2150933F2157D080914021981710F4BE
:10243000909340210895CE0142E0C5E4D1E2E0E06E
:10244000EBBF58815523B9F05A95EAEEFAE67CE0E5
:10245000579FE00DF11D112459816691669566958F
:10246000679548F070910221672329F45A9511F07D
:10247000598301C0188222964A9519F7C5E4D1E222
:10248000E7E4F1E24881442331F441915191129201
:10249000129249935993EC012BDF089570913D21DD
:1024A00068E2671B08F46627665F77278091022140
:1024B000909103210E94B7036115710559F4609151
:1024C0004021662339F063950E946B12961710F035
:1024D000609340210895909133219A9512F49927A1
:1024E0000BC0E0E0EBBFEAEEFAE68CE0989FE00D6F
:1024F000F11D11249691959580913821980F809126
:102500003A21980F80913B21980F9695809139211F
:10251000980F980F965F089540913E214595542F4E
:1025200055955595451B47FD44274D5F089590915E
:102530003C219695969596959E5F089560913E21D3
:10254000669570913C21670F62540AF06FEF089511
:1025500090913E21965208F09927919597FD93E02E
:10256000990F092E990F900D089510923C21109209
:102570003D2110923E2110923F21C5E4D1E282E03C
:10258000188222968A95E1F790912721903021F4C4
:102590006AE07AE085E093E0913021F466E076E04D
:1025A0008CE098E0923021F464E076E087E09DE0F2
:1025B000609338217093392180933A2190933B2185
:1025C0003ADF89DF909340210895000000000078F1
:1025D000422CEF93FF9322960E948505229752D2B8
:1025E000E0E0EBBFFF91EF914091282150912B212A
:1025F0004093DC215093DD2140E09691903019F416
:102600003896469138974093D42141FF05C05091A8
:10261000D521552309F4B7C140FF36C035968691C0
:1026200035979885981780F16A817D81809128215E
:1026300090912B21861B08F48195971B08F49195A6
:10264000980F08F49FEF9C33F8F050910221550F3A
:10265000550F60910321661F661F5C276C277DEA7A
:10266000679F602D702D7295488151E6459F6025CA
:1026700071251124603F08F0605F743B08F0745BC3
:102680006093DC217093DD214091D42142FF24C06E
:102690004091DC215091DD216A817D81CB01841B39
:1026A000951B87FD819597FD91952091D42124FF5D
:1026B00004C0883788F4983778F4891728F083E0C5
:1026C000641730F481E004C082E0751708F480E0FC
:1026D00099819C7F982B99834091D42145FF79C0A3
:1026E000DF013296469132974A95CAF3E0E0EBBF9C
:1026F000EAEEFAE65CE0459FE00DF11D11245691EB
:10270000379646914770EAECF5E2E40FF11D4491EB
:10271000E0E0EBBFFD0153705130F1F58981582F96
:102720008036A8F5598153706A817D818091282176
:10273000681B67FD619590912B21791B77FD719541
:10274000523039F467FD6195693048F6741738F6F0
:102750001AC0503039F467FD61956930D0F57417AF
:10276000C0F511C0533039F477FD7195793088F593
:10277000641778F508C0513051F477FD71957930C0
:1027800040F5641730F589818F7180668983909157
:10279000D4219078F1F4089589818036D0F46A814B
:1027A0007D818091282190912B21A981A3700E9485
:1027B0003F07492FDF01329696910E945407FD0191
:1027C000401538F489818F718066898398E10E9471
:1027D00089039091D42193FFD6C02091DC213091C0
:1027E000DD214A815D81BA01621B731B67FD619522
:1027F00077FD71953A96A6913A979091D42196FFDC
:102800002EC08985887359F56C3318F47C3308F42D
:1028100026C03696279136913797BA01621B731BF3
:1028200067FD619577FD7195663048F4763038F430
:102830008C81803021F48F81803009F4A4C0671727
:1028400028F083E0421730F481E004C082E053179F
:1028500008F480E099819C7F982B99835FC09091C8
:10286000D42194FF08C08985887329F46C3310F44F
:102870007C3308F088C09091D42197FF4FC02091FD
:10288000282130912B214A815D81BA01621B731B83
:1028900067FD619577FD7195862F870FF8F180337D
:1028A000E8F5BA2FB695AB0F809103219881990F67
:1028B000990F890F82FDA195BA2F351788F024173B
:1028C00040F0A195BB276717D0F0BA2FB195AA2782
:1028D00016C0A195BB27671790F0BA2FAA270FC083
:1028E000241730F0BB27671750F0BA2FAA2707C06C
:1028F000BB27671720F0BA2FB195AA2700C08C819B
:102900009F818A0F1BF48FE7A7FD80E89B0F1BF4C4
:102910009FE7B7FD90E88C839F8335C0BA2F8C81E9
:1029200090912A2197FD9195983250F4643140F4AA
:10293000A5950A2E0594A00D663010F4859508C063
:10294000241708F4A1958A0F1BF48FE7A7FD80E8F0
:102950009F8160912D2167FD6195683250F474313B
:1029600040F4B5950B2E0594B00D763010F4959586
:1029700008C0351708F4B1959B0F1BF49FE7B7FD0E
:1029800090E88C839F830895598579817695672F88
:1029900076957770629567708C819F810E94D006D2
:1029A0005987898183706295660F862B770F770F21
:1029B000872B8983E0E0EBBFEAE8F3EA68816A9558
:1029C00070E1679FE00DF11D11249691903079F52B
:1029D000A0D032965691399696919093DC21E7E8F3
:1029E000F1E26081662331F0613021F0CE17DF071C
:1029F00019F05DD03A97F5CF609102216770B9F474
:102A00005A95FAF1E0E0EBBFEAEEFAE66CE0569F89
:102A1000E00DF11D112456915370513091F56981EB
:102A2000762F707E703669F56C71643009F029C0BC
:102A3000769172957C70379666915091DC21529513
:102A4000507F752B726062956695687359815295B7
:102A5000550F550F507C652B8A819D81598153708C
:102A6000523009F49850503009F4985F533009F40B
:102A70008850513009F4885F0E94CD1B92E20E9479
:102A8000890308954A815D814A3F10F044271C82E2
:102A9000453E10F044EE1C825A3F10F055271F822D
:102AA000593A10F058EA1F824A835D8308956A817B
:102AB0007D8182819581681B84E010F46195819508
:102AC000791B94E010F471959195693008F5733095
:102AD000F8F4670F6830E0F46C817F81680F1BF4B5
:102AE0006FE787FD60E8790F1BF47FE797FD70E8DB
:102AF0006C837F8364817781681B1BF46FE787FF9A
:102B000060E8791B1BF47FE797FF70E864837783A5
:102B100008956A817D810E949712892F0090282153
:102B2000601910F46195819500902B21701910F4B3
:102B300071959195683000F57230F0F4670F66304A
:102B4000D8F46C817F81680F1BF46FE787FD60E824
:102B5000790F1BF47FE797FD70E86C837F830E94F9
:102B60009E1270912A21760310922A2170912D21B4
:102B7000760310922D2111240895998596959695A6
:102B800096959770913079F490910221977059F44D
:102B90009985892F87708395843010F0198603C03A
:102BA000987F982B9987089587E997E58093282146
:102BB00090932B211092292110922C210E947A1A95
:102BC00010922A2110922D2110923221109233213D
:102BD000C9E4D1E280E09CE089939A95E9F7CCE0E2
:102BE000D1E280E094E089939A95E9F7CBE0D1E2D5
:102BF00080E091E089939A95E9F7C4E1D1E28FEF03
:102C00009FE089939A95E9F7C3E2D1E28FEF94E0D0
:102C100089939A95E9F7C0E1D1E28FEF94E0899327
:102C20009A95E9F7C4E9D1E280E098E089939A9512
:102C3000E9F7C8ECD1E280E09CE089939A95E9F746
:102C40007CE28EE29DE27093492180934A21909329
:102C50004B21909127219F70909327210E94B512BC
:102C60001092352190E090933421109237211092E8
:102C7000412110924221109243211092442110923E
:102C8000052190E09093C72110929D2110929C21E4
:102C900010929E21E1E0EBBFE0E8FCE10E94F01C15
:102CA000089596E090930621A0E2BEE16DE188E7E9
:102CB00096E00E941410ABEEBEE185E094E0E0E007
:102CC000EBBFE6E2FCEA0E940510ACECBEE183E05B
:102CD00094E0E6E5FCEA0E940510A0EBBEE172E894
:102CE00060E50E940B0F149768E50E940B0F089592
:102CF000BBD40E9440030E941B12E2D726D065D2AB
:102D00005FD49CD46AD55FD78BD70E94FB1E90916D
:102D100006219630C1F4AED70E946C070E941708B6
:102D2000A3D490910621963071F4E1E0EBBFE091DD
:102D30000721F0910821EA58FE4F87919791992336
:102D400011F0FC0109950C943F02209109215BEAE6
:102D5000259F512D1124569556955695422F2CE0BE
:102D6000259F4019112420910A217BEA279F712D6C
:102D70001124769576957695622F2CE0279F601921
:102D8000112480910721909108210E943A0CE1E0E2
:102D9000EBBF06E0E0910721F0910821EE59FE4FCC
:102DA0004791879197914A95B2F0EF01E0E2FEEEEC
:102DB00056E0459FE00DF11D11244791840F479186
:102DC000940F6791779147915691FA010E94460DB1
:102DD000FE010A9529F740919D21542F5873B1F0B7
:102DE0004770E0910721F0910821E95BFE4F879140
:102DF0009791E2E0EBBFE4EAF7ED50E9459FE00D83
:102E0000F11D11246CE07CE00E94460DCFE9D1E277
:102E100006E028812223A1F0E2E0EBBF203818F081
:102E2000E4E3F1ED07C02A9534E2239FF001112479
:102E3000E451F84366E076E08A819B810E94460D6A
:102E400024960A9531F7C5E5D1E206E018811130E4
:102E500079F4E2E0EBBFE0E0FAE56CE07CE08A8147
:102E60009D810E94460D69858A819D810E947F0E09
:102E70002A960A9559F7C5E5D1E206E011270130F7
:102E800059F04881413011F04A950AF464C08D81AF
:102E900090912B21891770F1112361F511E0C093F6
:102EA000DC21D093DD2190914021903049F0809138
:102EB000282190912B21C1E3D1E20E94C10D14C0C1
:102EC000E2E0EBBFE0E0FAE56CE07CE080912821F5
:102ED00090912B210E94460D6091372180912821ED
:102EE00090912B210E947F0EE0E0EBBFC091DC218E
:102EF000D091DD2148814130542F69F14A955AF132
:102F0000EBE8F3EA50E1459FE00DF11D1124259116
:102F10002093D92125912093DA2125912093DB213B
:102F20002981322F33703093DC212695322F36954C
:102F300037703093DE21229527702093DD2129857B
:102F40002093DF218A819D817E01C9EDD1E20E941B
:102F5000C10DE701E9D02A960A9509F090CFC7EB99
:102F6000D1E204E07881787349F068818A81843EF7
:102F700028F49B81983A10F40E947F0E24960A95BB
:102F800089F7CBE9DEE19091022190FD219654E092
:102F90004DE148834A834C834E8348874A874C8758
:102FA0004E876B9648834A834C834E8348874A8773
:102FB0004C874E87488B4A8B6F9648834A834C8355
:102FC0004E8348874A874C874E87488B4A8BAA9600
:102FD00048834A834C834E8348874A874C87CC5E1C
:102FE000DF4F5A95B1F6C45FD14048834A834C8382
:102FF0004E8348874A874C87C85ADD4F48834A83A7
:103000004C834E8348874A874C87A6EEBEE10E94D8
:103010006B12592F77270E94460F6FE20E940B0F09
:10302000A450B040509140210E94460FA7ECBEE151
:1030300020914121309142210E94820FA7EABEE1F6
:10304000209143213091442177270E94820F909153
:10305000022190FD34C0E0E0EBBFEAEEFAE68827FB
:10306000409132214A95B2F05CE0459FE00DF11DA0
:103070006691660F6077605F772780912E2194E0DC
:10308000899FC0010E94B703662309F083958430AD
:1030900008F084E0EAE5F0E24CE45AE494E040838E
:1030A0005183E857F0409A95D1F7882341F044EADC
:1030B0005BE5E858FF4F408351838A95D1F79091A3
:1030C000022190FF26C00E94A812692F772784E072
:1030D00090912F21899FC0010E94B703662309F0B8
:1030E0008395843008F084E0EEE5F0E24AE151E1B6
:1030F00094E040835183E857F0409A95D1F78823B4
:1031000041F044EA5BE5E858FF4F408351838A95DC
:10311000D1F7AFE8BEE199270E942310A7E8BEE1EE
:1031200091E00E942310089500900A217D8170197A
:1031300098F07F3388F4E0E0EBBFEAE8F3EA80E15F
:1031400098819A95899FE00DF11D112435969691ED
:10315000A885A91710F0988708954CE05CE05A9F65
:10316000D00111244A95A91BB109E0F7A0E0B2E013
:103170006A8160507D81735038F18091092190916E
:103180000A21791B08F17234F8F498E7799FA00DB1
:10319000B11D1124762F781B18F4570FAAF00BC01D
:1031A000645F8858681B28F0461B47FD4427561B60
:1031B0005AF0A70FB11D96E0552331F0451708F0DE
:1031C00092E09D935A95D1F7089520910021309176
:1031D00001210E948C1232FF0DC050912D21541BF1
:1031E0001BF45FE747FF50E850932D2152E035FF75
:1031F0005093342130FF0DC050912D21540F1BF4FA
:103200005FE747FD50E850932D2150E035FF509384
:10321000342133FF0DC050912A21541B1BF45FE76A
:1032200047FF50E850932A2153E035FF5093342153
:1032300031FF0DC050912A21540F1BF45FE747FD69
:1032400050E850932A2151E035FF5093342134FF48
:1032500004C024FD02C00FD00DC035FD81D136FD64
:103260006AD137FF07C027FD05C091E00E9489039E
:103270000E941C1F08952091282130912B212A5F44
:103280003A5FE3EBF1E266E07081772371F042810F
:1032900053814D5F5D5F421B47FD4195531B57FDB9
:1032A0005195483010F4593020F034976A9561F701
:1032B00038C0A9E4B1E2703878F0509141216091B2
:1032C00042217058570F611D509341216093422154
:1032D00092E10E9489030EC06CE05D91552331F0AC
:1032E0006A95D9F795E00E9489031BC07E9392E10D
:1032F0000E94890310824181442391F0542F469506
:1033000046954695A0E1B1E2A40FB11D4C9161E054
:10331000577019F0660F5A95E9F7609546234C935C
:10332000E8C0C5E5D1E266E078817A95CAF04A81C5
:103330005D814A5F5A5F421B47FD4195531B57FD14
:103340005195450F4C3060F4EAE8F3EA40E1479FBD
:10335000E00DF11D11244491413031F0423061F013
:103360002A966A9509F740C091E00E948903399630
:1033700094910E94FB21BDC0399642E04591859110
:1033800095914A95DAF0642F542F66956695669567
:10339000A3E2B1E2A60FB11D7C91272F577019F05F
:1033A00026955A95E9F72170E9F061E0477019F028
:1033B000660F4A95E9F7609576237C938E59944879
:1033C000E1E0EBBFE0910721F0910821E458FE4FC6
:1033D000479157914115510511F0FA0109950E9445
:1033E0000F2587C04A9551F66091282170912B21B5
:1033F000E1E0EBBFE0910721F0910821E95BFE4F8E
:1034000087919791861B87FD8195971B97FD9195D5
:103410008830A8F4983098F490919D21892F907C61
:1034200071F4806480939D210E946B1290934021DF
:1034300090E19093372199E30E9489035AC040910B
:10344000282150912B21E1E0EBBFE0910721F09181
:103450000821E25BFE4F64E0879197918115910509
:1034600009F440C0841B87FD81958830D8F5951BF1
:1034700097FD91959830B0F5479167917791E091DC
:103480000721F0910821EC58FE4F969194FD6AD4E3
:10349000E0910721F0910821E658FE4F879197911E
:1034A0008115910511F0FC01099560932821709315
:1034B0002B21717031F06091342162506370609300
:1034C000342118D090E30E948903E0E0F0E050EC52
:1034D000459F000C111CE00DF11D112481D20E94AA
:1034E000EF2507C033966A9509F0B6CF95E00E94A4
:1034F0008903089590912821983718F41092092192
:1035000009C0943B20F098E79093092103C09C5395
:103510009093092190912B219C3318F410920A2149
:103520000895923720F09EEA90930A2108959B51C6
:1035300090930A21089540912F21442381F442E081
:1035400040933521109236210E94A81290932F218A
:10355000409134214093302196E20E9489030895DE
:1035600040912E21442359F5409132214A952AF465
:1035700048E240932E2195E020C0E0E0EBBFEAEE68
:10358000FAE65CE0459FE00DF11D1124469198E1BB
:10359000542F5370513039F4992742FF04C0509191
:1035A0003F21543140F3542F5873505F50932E21D4
:1035B00053E050933521109236210E9489030895DB
:1035C000E7EBF1E244E05081652F687399F1718176
:1035D00076957695737099F0852F807C87FD71952F
:1035E00086FF08C08281870F843E10F0108222C0BF
:1035F000828305C08381870F883AC0F78383752F44
:103600005770707C603349F480910221837091F48B
:103610005395563060F066270AC0683359F480919C
:103620000221837039F45395543008F06627562BE5
:10363000572B508334964A9531F608959091022184
:10364000977089F490919D21892F887361F090344F
:1036500050F0892F87708395873008F084E0987F39
:10366000982B90939D210895F9991DC090919D21CB
:10367000892F8873C1F09038B0F49034A0F0E5E061
:10368000F1E280E190E060919E21F894623038F59B
:10369000613050F4639560939E2192BD81BD7AE2C2
:1036A00070BDFA9AF99A3BC00196639560939E218A
:1036B00092BD81BD70919D217695769576957770B6
:1036C00061E0777019F0660F7A95E9F770919C21A7
:1036D000762B70939C2170BDFA9AF99A20C0860FC0
:1036E000911D6250E60FF11D603590F492BD81BDD1
:1036F000F89A01967191639500B40716A9F370BD0D
:10370000FA9AF99A762F7E5F70939E21603538F091
:1037100010929E2190919D21906C90939D21789480
:10372000089580E190E0FA9A92BD81BDF89A70B553
:1037300001967A3211F091E02FC092BD81BDF89AC6
:1037400070B570939C210196E5E0F1E260E592BDD1
:1037500081BDF89A70B5719301966A95C1F7109280
:103760009D2110929E21E4E9F1E294E011921192E0
:103770009A95E1F7E0910721F091082131D110925B
:10378000C7210E94511610922A2110922D211092C9
:1037900035211092372199270895E7EBF1E244E0B3
:1037A0005081587329F460837183828393830895D1
:1037B00034964A95A9F7509102215770543008F079
:1037C0005450E7EBF1E244E0549FE00DF11D112469
:1037D0006083718382839383089590919E219923BE
:1037E00051F080912A2190912D2185959595809376
:1037F0002A2190932D21C8E2D1E20E94850589D02B
:10380000409135214230E1F440913021423019F4A9
:1038100040E840932D21403019F44FE740932D218B
:10382000433019F440E840932A21413019F44FE71E
:1038300040932A21C8E2D1E20E9485050E948505B5
:1038400040913521433061F440910221477041F4A9
:1038500040913621413021F4409132214A950AF4B9
:1038600033C0E0E0EBBFEAEEFAE65CE0459FE00D36
:10387000F11D11244691542F5370513029F5609158
:1038800034218091282190912B21623009F49850A5
:10389000603009F4985F633009F48850613009F4AE
:1038A000885F6295660F660F37965691752F707F09
:1038B00042954C70742B7160529556955873652BD8
:1038C0006CDF9CE10E948903509137216091352182
:1038D0007091362180912A2190912D210E94D0064D
:1038E00050933721609335217093362180932A219C
:1038F00090932D210E944E1240912E21415010F0A4
:1039000040932E2140912F21415010F040932F21C0
:1039100008958091282190912B21853E18F4993AA1
:1039200008F40895E1E0EBBFE0910721F091082150
:10393000E658FE4F879197918115910511F0FC0192
:103940000995E1E0EBBFE0910721F0910821EC58E7
:10395000FE4F66918091282190912B21803F60F04D
:10396000E554F040769163FDFDD184EE80932821EB
:1039700088578093092125C0853E50F0E754F040D8
:10398000769161FDEFD1109228211092092119C082
:10399000943B60F0E654F040769162FDE3D188EA12
:1039A00080932B218C5380930A210BC0993AB8F055
:1039B000E854F040769160FDD5D110922B21109201
:1039C0000A2190EC799F000C111CE1E0EBBFE0E0D4
:1039D000F0E0E00DF11D112403D00E94EF250895C1
:1039E000CF93DF9321E02BBFE0930721F0930821D1
:1039F000109293212091282130912B212093912105
:103A000030939221CFE9D1E226E0199219921992CE
:103A100019922A95D1F7EA5CFE4FCFE9D1E224E072
:103A20003791479157916791A0E1B1E2742F842FAC
:103A3000769576957695A70FB11D7C91877019F0D4
:103A400076958A95E9F7717021F0388349835A8316
:103A50006B8324962A9521F7C5E5D1E226E01882EA
:103A60002A962A95E1F7C5E5D1E2A0910721B09108
:103A70000821A05DBE4F26E0E1E0EBBFFD0197917C
:103A8000492FDF014A9592F1542F642F6695669570
:103A90006695E4E1F1E2E60FF11D7081577019F0CF
:103AA00076955A95E9F77170F1F0392FE0E0EBBFA8
:103AB000EAE8F3EA80E1489FE00DF11D11248691C8
:103AC000823029F43F963691311101C0392FE4E953
:103AD000F1E284E07081791731F0731721F03296AA
:103AE0008A95C1F738D02A962A9531F6E1E0EBBFE6
:103AF000E0910721F0910821EA5BFE4F4791109277
:103B00009E21542F550F550F550F587360919C21CE
:103B1000477019F066954A95E9F7617009F0546CA1
:103B200050939D21E7EBF1E244E0108234964A95F0
:103B3000E1F7E1E0EBBFE0910721F0910821E858BF
:103B4000FE4F879197918115910511F0FC01099520
:103B5000DF91CF91089598839923A1F19A95E0E0A0
:103B6000EBBFEAE8F3EA80E1989FE00DF11D112434
:103B70001986869134969791998397919887979112
:103B80001B829A8397911E829D831C821F82389785
:103B90008230C1F43F9696913F979A959AF0892F7B
:103BA000969596959695BD01A4E1B1E2A90FB11D38
:103BB0009C91DB01877019F096958A95E9F79170D1
:103BC00009F4188208956091282170910921862FA7
:103BD000871B883128F4762F785148F4772707C05F
:103BE000843528F0762F7455783708F078E770938D
:103BF000092160912B2170910A21862F871B823128
:103C000028F4762F725148F4772707C08E3128F0B8
:103C1000762F7E51783708F078E770930A2108955F
:103C2000909193219395943118F490939321089552
:103C3000C4E9D1E284E098819923C1F018824981D6
:103C400010929321C5E5D1E286E00880002021F0A2
:103C50002A968A95D1F708950E94AB1D80919121F3
:103C6000909192218A839D834887089522968A9510
:103C700011F70895C5E5D1E29881913019F40E94B9
:103C8000BD1518C09150B0F0E0E0EBBFEAE8F3EAF0
:103C900080E1899FE00DF11D11249691903011F47F
:103CA0000E94E9128F010E94C414F8010E940409C5
:103CB0000E9470082A9691E2C139D907E8F2089566
:103CC000CFE5D1E245E0688179818A819B810C80D2
:103CD0000092DC21AD81BE810F800092DD2108843D
:103CE0000092DE2109840092DF21662309F4A8EA0C
:103CF00056E0541BFE013A972081222311F428EA52
:103D000025832581A21748F500800286018003865D
:103D10000280048603800586048006860580078667
:103D20000680008A0780018A0084028A0184038A4F
:103D300060837183828393830090DC210482A58356
:103D4000B6830090DD2107820090DE21008600907E
:103D5000DF2101863A975A9579F62A964A9509F015
:103D6000B2CF0895E5E5F1E2C4E9D1E2908199236B
:103D7000D9F1809128218A3E08F088270280801995
:103D800008F4819590912B219E3A08F0992705809F
:103D9000901908F49195980F38F1903328F5E09335
:103DA000DC21F093DD210BB60092DE2180818A9523
:103DB00090E1899FE0E0EBBFEAE8F3EAE00DF11D56
:103DC00011249691E091DE21EBBFE091DC21F0918E
:103DD000DD21903049F480819085888399832296F3
:103DE000CC3991E2D90730F43A96E13991E2F907FA
:103DF00008F4BCCF0895CFE9D1E295E0488144238F
:103E000089F4892FFE014081442321F434968A9558
:103E1000D1F70BC0518162817381488359836A83D2
:103E20007B83108224969A9549F708950E94400357
:103E300067D10CD00C943F0297E09093062110922A
:103E40002A2110922D211092D42108952091002131
:103E5000309101212095232319F01092052107C0EC
:103E6000509105215395509305215F70E1F530FF86
:103E70000AC097E00E9489036091D42166301AF449
:103E80006A5F6093D42131FF0AC097E00E948903E2
:103E90006091D42163956C3010F46093D42132FF8B
:103EA00009C097E00E9489036091D421665010F008
:103EB0006093D42133FF09C097E00E948903609189
:103EC000D4216A9582F06093D421622F64FD0CD0D6
:103ED00065FDAFD066FDEFD067FF05C091E00E94A1
:103EE00089030E9451160895A9E4B1E22091D421DA
:103EF000A20FB11D2C91222309F483C0422F4A95B1
:103F0000E0E0EBBFEAEEFAE63CE0439FE00DF11D96
:103F1000112436913370333021F495E00E948903E7
:103F200085C0323049F030913221209332213C93C8
:103F300099E00E9489037AC0309133212A3129F413
:103F40003B3119F4332729E155C02B3129F43A319B
:103F500019F4332729E14EC0203229F4313219F403
:103F600033272FE147C0213229F4303219F43327A7
:103F70002FE140C040913121413041F42F3011F404
:103F800020E104C0233111F424E121C02F3029F4B1
:103F9000343019F421E133272DC0203129F4343095
:103FA00019F422E1332726C0243051F43F3019F4AC
:103FB00021E133271FC03031E9F422E133271AC051
:103FC000233129F4373119F425E1332713C0243183
:103FD00029F4373119F426E133270CC0273151F485
:103FE000333119F425E1332705C0343119F426E1C2
:103FF000332700C0209333213C9399E00E9489032A
:1040000015C020913221222339F02C9310923221B5
:104010009CE00E9489030AC0209133212C931092C6
:10402000332195E021119CE00E9489030E947811C0
:104030000895A9E4B1E22091D421A20FB11D2C91E1
:104040002223E1F0322F3A95E0E0EBBFEAEEFAE608
:104050004CE0349FE00DF11D112436913370333064
:1040600069F437963691317049F4E5E4F1E242E0C3
:104070005081552339F032964A95D1F795E00E9448
:10408000890316C09FE00E94890320834FEF41837C
:104090001C9248E140933721213311F0283341F439
:1040A00040E140933721409140214C5E40934021B4
:1040B0000E9478110895E9E4F1E22091D421E20F01
:1040C000F11D20812223C1F01082EFE9F1E256E0D8
:1040D0004081442371F420831182209128212E5F96
:1040E00030912B213A5F2283338395E10E9489032B
:1040F00006C034965A9561F795E00E9489030895A9
:10410000EF92FF920F931F93A0E0B2E06DE188E77A
:1041100099E00E941410A8E3B6E06EE688E799E300
:104120000E941410C2EFD2E0E0E0EBBFEEE9FAEA41
:104130004EE5509127215F70459FE00DF11D112440
:1041400070E05AE00E94AB0FACE2B3E0C8E3D1E20A
:1041500044E08D012C813991522F57FD5195321B2E
:1041600019F074E037FD70E10E94330F20301CF429
:104170006DE20E94D70ED801509677274A9549F7ED
:10418000A7EFB0E14427942FED010E942310DE0138
:10419000189743954230B9F7AEE0B8E087E097E072
:1041A000E0E0EBBFE4EFFBEA0E940510A2E8B8E014
:1041B0000E946B12592F0E94330F6FE20E94D70E9C
:1041C000A450B040509140210E94330FA8E4BCE0BD
:1041D00084E097E0E0E0EBBFEAE3FCEA0E94051030
:1041E000AAEBBCE020914121309142210E94590F5D
:1041F000ABE1B9E0909132210E948610A3E7BAE0CA
:10420000C1E3D1E20E942B0E6091372180910921F8
:1042100090910A218D5F9E5E0E947F0E5091372102
:10422000609135217091362180912A2190912D2124
:104230000E94D00650933721A3E5BDE09091332131
:104240000E948610A9E2B9E04427E9E4F1E2E40F14
:10425000F11D9081ED010E948610DE0119964395B3
:10426000463011F4A1E6BDE04C3078F32091D42122
:10427000A0EBB8E0263018F0A8EEBCE0265049E0EC
:10428000249FA00DB11D112488E098E0E0E0EBBF71
:10429000E4EBFBEA0E9405100091D421E9E4F1E28D
:1042A000E00FF11D0081002309F47CC0A8E4B4E113
:1042B0006DE188E797E00E9414100A95C2ECD4E102
:1042C000E0E0EBBFE6EEFAE63CE0039FE00DF11D17
:1042D000112487919791FC01E250F24970E05DE171
:1042E0000E94AB0FCAE0D8E1E8EEFAE63CE0039F9B
:1042F000E00DF11D11248791979156E10B3218F0D2
:104300000E3208F45CE1FC01E250F24970E00E94D8
:10431000AB0FC3E7D8E1EAEEFAE63CE0039FE00D1D
:10432000F11D11244691379656913497E790F790F6
:1043300007911791E0E0EBBF43704330A1F04230AA
:1043400051F052955F7079F0E2ECFCEA952F37D08E
:10435000C053DD4F08C05F7031F0E6ECFCEA952FEA
:104360002ED0C053DD4FEE2031F0EAECFCEA9E2D5A
:1043700026D0C053DD4FFF2031F0EEECFCEA9F2D3C
:104380001ED0C053DD4F002331F0E4EDFCEA902F46
:1043900016D0C053DD4F112369F0E8EDFCEA912FF0
:1043A0000ED008C0C4ECDDE1E2E6FCEA5DE177276F
:1043B0000E94AB0F1F910F91FF90EF9008959F9374
:1043C00056E077270E94AB0FA151B0405F9178E192
:1043D0004BE250301CF474E04DE251950E94330FD3
:1043E000642F0E94D70E772708950E944003C2D001
:1043F00027D00C943F024091C7211092D421491735
:10440000B9F09093C7219A95A8ECB1E24CE01D92C7
:104410004A95E9F7E4ECFAE74CE0949FE00DF11DD2
:104420001124A8ECB1E248E055915D934A95E1F77B
:1044300048E04093062110922A2110922D210895E0
:1044400020910021309101212095232319F0109211
:10445000052107C0509105215395509305215F70A8
:10446000F1F530FF0AC097E00E9489036091D421E2
:104470006C301AF4645F6093D42131FF0AC097E076
:104480000E9489036091D4216395683110F4609390
:10449000D42132FF09C097E00E9489036091D421A2
:1044A0006C5012F06093D42133FF09C097E00E9452
:1044B00089036091D4216A9592F06093D42134FFEE
:1044C00003C095E00E94890335FD0AD036FD2ED049
:1044D00027FF05C091E00E9489030E9451160895AC
:1044E0005DD1992319F49C919A9522F495E00E944C
:1044F00089031BC077D16091412170914221681BD3
:10450000790BA0F3C9E4D1E24CE05991552319F09D
:104510004A95D9F7EBCF60934121709342214C919A
:104520001C924A9392E10E948903089537D19923FE
:1045300019F09C91915020F495E00E94890319C0D4
:10454000C8ECD1E24CE05991552311F04A95D9F7C6
:104550007AD16091412170914221680F791F609357
:104560004121709342214C911C924A9395E10E9403
:1045700089030895A0E0B2E06DE188E799E00E9428
:104580001410A8E3B6E06EE688E799E30E941410E1
:10459000E0ECFAE74CE05091C7215A95459FE00DB9
:1045A000F11D112445915591E0E0EBBFE8E0FBE7F8
:1045B000E40FF51FC2EFD2E05DE177270E94AB0F59
:1045C000C5E4D3E0E0E0EBBFEEE9FAEA4EE5509156
:1045D00027215F70459FE00DF11D11245AE00E94D4
:1045E000AB0FACE2B7E04427E8ECF1E2E40FF11DD9
:1045F0009081ED010E948610DE01199643954630A8
:1046000011F4A4E6BBE04C3078F3A9E6B7E0442708
:10461000E9E4F1E2E40FF11D9081ED010E948610C2
:10462000DE0119964395463011F4A1EABBE04C3007
:1046300078F3AEE7B0E187E097E0E0E0EBBFE4EFCE
:10464000FBEA0E940510A1EFB0E10E946B12592F06
:104650000E94330F6FE20E94D70EA450B0405091D9
:1046600040210E94330FA0E6B0E184E097E0E0E053
:10467000EBBFEAE3FCEA0E940510A3EDB0E1209154
:104680004121309142210E94590F4091D421A3EB46
:10469000B6E04C3018F0A85CBB4F4C5059E0459F39
:1046A000A00DB11D1124463010F0A95FBF4F88E066
:1046B00098E0E0E0EBBFE4EBFBEA0E9405106ED06F
:1046C0000C91192F0A950AF460C0A8E4B4E16DE1D9
:1046D00088E797E00E941410C2ECD4E1E0E0EBBF61
:1046E000E6EEFAE63CE0039FE00DF11D1124879110
:1046F0009791FC01E250F24977275DE10E94AB0FF0
:10470000CAE0D8E1E8EEFAE63CE0039FE00DF11DD7
:10471000112487919791339656E10B3218F00E329F
:1047200008F45CE1FC01E250F24970E00E94AB0F3A
:10473000CFE6D8E15DE1112379F4E0E0EBBFECEDE9
:10474000FCEA0E94AB0F902F4DD09C01A6E1BEE188
:1047500074E00E94590F0EC0E0E0EBBFE4EEFCEA0B
:104760000E94AB0F902F6FD09C01A6E1BEE178E1D3
:104770000E94590FA2EABDE184E097E0E0E0EBBFC0
:10478000EAE3FCEA0E94051008C0C4ECDDE1E2E6C1
:10479000FCEA5DE177270E94AB0F08958091D42158
:1047A00091E0863030F4A8ECB1E2A80FB11D992752
:1047B00008958650863028F4A9E4B1E2A80FB11D0F
:1047C00008958650863030F4AEECB1E2A80FB11DEA
:1047D000992708958650863020F4AFE4B1E2A80FFF
:1047E000B11D0895E0E0EBBFEBEEFAE68CE0899FA7
:1047F000E00DF11D47915791E0E0EBBFE2ECFAE7E5
:104800006CE07091C7217A95679FE00DF11D11242E
:1048100067917791479F169407941694079416947E
:1048200007941694079416940794C001579F000CA0
:10483000111C000C111C000C111C800D911D112469
:10484000860F911D0895E0E0EBBFEBEEFAE68CE0F9
:10485000899FE00DF11D1124879197910895809112
:10486000C7218917F1F4772788279927A8ECB1E2A7
:10487000E0E0EBBF4CE06D91062E0A9472F0EBEE97
:10488000FAE65CE0509DE00DF11D07901790701561
:10489000810518F4702D812D962F11244A9559F712
:1048A00027C0E4ECFAE78CE09A95899FE00DF11DB2
:1048B000112477278827992748E060E06BBF67912C
:1048C000DF01062E0A9482F0E0E0EBBFEBEEFAE6A1
:1048D0005CE0509DE00DF11D07901790701581056B
:1048E00018F4702D812D962F1124FD014A9529F77A
:1048F00008950E944003AED02BD0E0E0EBBFE091E2
:10490000D621F091D72196919030E1F43496879199
:104910009791FC01E452FF479091D821E90FF11DD6
:104920008691882379F093959093D8219091FE20D9
:10493000992341F4E8E4F9E48770E80FF11D9491BC
:104940009093FE200C943F0257595B5D5F61636555
:1049500020910021309101212095232319F01092FC
:10496000052108C0409105214395409305214F70D2
:1049700009F054C0E0E0EBBFE091D621F091D721DF
:104980004691413081F024FF08C036968791979177
:104990008E5994480E940F2541C0207E19F095E061
:1049A0000E9489033BC024FF20C034964091D4214B
:1049B00054E0459FE00DF11D1124879197918E5988
:1049C0009448E1E0EBBFE0910721F0910821E25823
:1049D000FE4F479157914115510521F0FA01AC0165
:1049E0000995CA010E940F2519C030FF0CC097E03D
:1049F0000E9489034091D4214395319656914517E1
:104A000068F44093D42132FF09C097E00E948903E3
:104A10004091D4214A9512F04093D42108958236D2
:104A20004BE7940719F40E94511608951092FE2046
:104A30001092FF208093D6219093D7211092D421F9
:104A40001092D82149E04093062110922A21109219
:104A50002D210895A0E0B2E06DE188E790E10E9489
:104A60001410A0E8B9E06EE688E792E30E94141003
:104A7000E0E0EBBFE091D621F091D7218F01469184
:104A8000403009F066C0A2EFB2E0319646914A95F7
:104A9000C2F1EBE8F3EA50E1459FE00DF11D11246E
:104AA0004591403890F04F77E2E0EBBFE0E0FAE567
:104AB00050E9459FE00DF11D11245CE066277CE084
:104AC00088279CE00E94100B0CC04093D92145918F
:104AD0004093DA2145914093DB21C9EDD1E20E9458
:104AE0002B0EE0E0EBBFF801329647915791FA01A7
:104AF000C2EED4E0E452FF4754E177270E94AB0FA7
:104B000016C0C1E3D1E20E942B0EE0E0EBBFEEE95C
:104B1000FAEA409127214F705EE5459FE00DF11DB7
:104B20001124C2EED4E054E177270E94AB0FE0E0FD
:104B3000EBBFF801349647915791FA01C3E6DBE0E9
:104B4000E452FF475CE177278091D8210E94D40F7F
:104B50000895A2EFB2E0C1E3D1E20E942B0EE0E0A3
:104B6000EBBFEEE9FAEA409127214F705EE5459FE1
:104B7000E00DF11D1124C2EED4E054E177270E942C
:104B8000AB0FE0E0EBBFF8013196E790C8E6DBE061
:104B9000F80132968F01F090D4217727FF2039F465
:104BA000DE01A650B04060E874E00E94D70EF80124
:104BB00047915791FA01E452FF475BE10E94AB0F26
:104BC000C85CDB4FF80134968F01FA94EA9429F718
:104BD00008950E944003E8D049D00C943F027091A0
:104BE000272172957F7080914321909144217030EC
:104BF00041F48E3160E09607C0F196E09093D821A1
:104C000013C0713041F4823C61E0960770F197E087
:104C10009093D82109C0723041F5843A66E0960736
:104C200020F198E09093D821739572958091272177
:104C30008F70782B709327211092D42110923C21F1
:104C400010923E2110923D2110923F219091062119
:104C500090930B219AE09093062190E29093372154
:104C600099E49093FE201092FF2008952091002156
:104C70003091012120954091D42147FD8CC0232300
:104C800019F01092052108C04091052143954093E9
:104C900005214F7009F0089532FF09C097E00E9486
:104CA00089034091D4214A9512F04093D42130FFDA
:104CB0000AC097E00E9489034091D421433018F440
:104CC00043954093D42133FF12C09CE00E94890396
:104CD0004091D421ECE3F1E2E40FF11D40814A95CB
:104CE00032F040834091D82143954093D82131FF41
:104CF00012C099E00E9489034091D8214A955AF048
:104D00004093D8214091D421ECE3F1E2E40FF11D6E
:104D100040814395408327FF06C04091D4214068DD
:104D20004093D42140C02077F1F14091D821442311
:104D300021F095E00E94890336C091E00E9489032A
:104D400040913C2150913821450F409338214091AA
:104D50003D2150913921450F4093392140913E2109
:104D600050913A21450F40933A2140913F21509173
:104D70003B21450F40933B2140910B21409306215D
:104D8000463011F40E9451160E9478110E946B1255
:104D90009093402108C02323207F29F04091D42103
:104DA0004F774093D4210895A0E0B2E06DE188E709
:104DB00099E00E941410A8E3B6E06EE688E799E354
:104DC0000E941410CCE1D3E0E0E0EBBFE4E7FCEAA2
:104DD0005AE077270E94AB0F4091D42147FF1BC0B8
:104DE0004F775CE17727CEE1D8E0E0E0EBBF4030E1
:104DF00019F4EEEEFCEA0CC0413019F4ECE9FDEADE
:104E000007C0423019F4E0EFFDEA02C0E6E9FEEA2D
:104E10000E94AB0F4AC0CEE1D8E0DE0190E046D060
:104E2000EAE9FCEA5AE00E94AB0FA4E3B9E082E2AF
:104E300090E049D0C6E4DDE0DE0191E037D0E4EA5D
:104E4000FCEA5AE00E94AB0FACE5BEE08EE091E0D8
:104E50003AD0CEE6D2E1DE0192E028D0EEEAFCEADA
:104E60005AE00E94AB0FA4E8B3E186E292E02BD0B7
:104E7000C6E9D7E1DE0193E019D0E8EBFCEA5AE09D
:104E80000E94AB0FACEAB8E184E993E01CD0C8EB18
:104E9000DDE1EEE7FCEA56E177270E94AB0FA8EBD5
:104EA000BDE15091D8210E94330F08954091D42143
:104EB000491711F077270895A550B04060E874E0D5
:104EC0000E94D70E0895E8E3F1E2E90FF11D408159
:104ED000EC5FFF4F5081FD01E858FF4F982F967B04
:104EE000969566E9469F000C111C000C111C8D93D1
:104EF00091931A94E1F7552359F0982F8964569F9E
:104F0000000C111C000C111C8D9391931A94E1F765
:104F1000A257B040540F0E94460F0895909105216A
:104F2000903218F40E94400302C00E94C1027BC06C
:104F30004BD0909106219B3051F4909102219370B7
:104F400031F490910521939511F0909305210C94E3
:104F50003F029093D5219130F1F4809102219091FC
:104F600003218093D6219093D7219091042190938F
:104F7000D82190E59093FE201092FF208AE89DE8CA
:104F80008093F8209093F9208EE095E98093FA20A1
:104F90009093FB2011C094E49093FE201092FF2088
:104FA00082EB9AE88093F8209093F92082E19DE8C3
:104FB0008093FA209093FB209BE09093062110921F
:104FC00005211092D6210895809100219091012110
:104FD0008095892339F190910521913418F19091B0
:104FE000D5219130F9F084FF0DC090919C21992337
:104FF00021F00E94911B9923A9F00E94D4150E94D0
:10500000511610C085FF0EC01092D4210E94B12A03
:105010009091F3209F649093F3209091F7209F64E8
:105020009093F72008959091D521913081F490913B
:1050300005219D3150F40E94A5160E94E01A0E949D
:105040001E1B0E94ED1B0E943A1E28D006C09091A4
:1050500005219E3108F484C001D06ACFA0E0B2E0FF
:10506000662788E792E40E94141054E175E09DE2FF
:10507000C1E3D0E1E0E0EBBFEAE3FFEA4BD05CE163
:1050800075E096E4C5E8D9E1EAE4FFEA43D090E5AB
:10509000CDECDCE1E2E6FFEA3DD00895E3E0EBBFD2
:1050A000E0E0F0E0909105219F3018F41092D621B5
:1050B00008959A3218F59091D6219D33F8F4C0E006
:1050C000D2E09091D62193959093D6214CE3491B41
:1050D000C40FD11D40E2892F8695481B58E7459F94
:1050E000C00DD11D11246CE3691B792F770F9695A4
:1050F00080E2891B990F0E94D21008950E94C3106C
:105100001092D62154E180910521803510F00E9443
:10511000F828089580910521692F68508617D0F0EE
:10512000981BB0F0672F872F77706873791B08F48E
:105130007727990F990F990F691B08F46627990F24
:10514000891B10F0891B08F48827807C762B782B2C
:105150000E94AB0F0895FFFF001E180000E7FF003C
:10516000909105219C3150F09FEF91B9A0E0B2E001
:10517000662788E792E40E94141028C00E94A516B2
:105180000E94E01A0E941E1B0E94ED1B0E943A1E04
:10519000909105219A30D0F09091D621892F969543
:1051A00096959695E6E5F1E5E90FF11D749199273D
:1051B000877019F076958A95E9F7717009F097E094
:1051C00091B99091D62193959093D62146CF909105
:1051D0000221977039F49091052193959C3D10F42C
:1051E000909305210E94C10209D019D00C943F026E
:1051F0009CE090930621109205210895909105213D
:105200009B3D60F080910021909101218095982331
:10521000907F21F01092D4210E94B12A089590919C
:105220000521992331F4E3E0EBBFE0E0F0E00E94D8
:10523000C310E0E0EBBFEAE7FFEA8AE490E07ED04B
:10524000E0E9FFEA8AE198E279D0E8E9FFEA8EE254
:1052500092E374D0E6EAFFEA86E196E46FD0EEEAE4
:10526000FFEA8EE290E56AD0ECEBFFEA8AE194E691
:1052700065D0E4ECFFEA84E39EE660D0E4EDFFEA6B
:1052800080E398E75BD0E2EEFFEA8AE29CE856D042
:10529000E0EFFFEA82E396E951D0EEEFFFEA84E423
:1052A0009EEB4CD0909105219B3D08F446C06CE3E9
:1052B00070E08091D6219091D7215091D821442738
:1052C000513028F0805F924D5040415FF9CF0E94ED
:1052D000B703262F6CE370E00E94B703362F480F08
:1052E0004A3030F44F93CBE5DDE14427C8D04F91ED
:1052F000CFE5DDE1C4D0C4E6DDE15AE3F9D03A30D0
:1053000020F4C9E6DDE14427BAD0CDE6DDE1432F44
:10531000B6D0C2E7DDE15EE2EBD095ED299F000C4F
:10532000111C212D11242A3020F4C7E7DDE1442788
:10533000A6D0CBE7DDE1422FA2D008954091052110
:10534000941B38F5965C28F19395C0E0D2E048E7CD
:10535000499FC00DD11D1124682F66956C5361952E
:10536000C60FD11D9E01DF014BB7C957D040782F22
:105370006A957395892F8A9599E0E3E0EBBFE0E0A9
:10538000F0E00E94D210FD014BBFE901D23009F0DC
:1053900001D00895C093DC21D093DD21E093DE217C
:1053A000F093DF217727C957D0400E94AB0FC091FF
:1053B000DC21D091DD21E091DE21F091DF21C85781
:1053C000D0400E94AB0FC091DC21D091DD21E09153
:1053D000DE21F091DF21C757D0400E94AB0FC09172
:1053E000DC21D091DD21E091DE21F091DF212197B8
:1053F0000E94AB0FC091DC21D091DD21E091DE2134
:10540000F091DF210E94AB0FC091DC21D091DD2112
:10541000E091DE21F091DF2121960E94AB0FC09137
:10542000DC21D091DD21E091DE21F091DF21C75810
:10543000DF4F0E94AB0FC091DC21D091DD21E091C4
:10544000DE21F091DF21C858DF4F0E94AB0FC091E1
:10545000DC21D091DD21E091DE21F091DF21C958DE
:10546000DF4F0E94AB0FC091DC21D091DD21E09194
:10547000DE21F091DF217FEF0E94AB0F08957727A7
:10548000DE01A957B040542F0E94330FDE01A85708
:10549000B040542F0E94330FDE01A757B040542F65
:1054A0000E94330FDE011197542F0E94330FDE014B
:1054B000542F0E94330FDE011196542F0E94330F98
:1054C000DE01A758BF4F542F0E94330FDE01A858AA
:1054D000BF4F542F0E94330FDE01A958BF4F542FE6
:1054E0000E94330FDE017FEF542F0E94330F089587
:1054F0007727DE01A957B040652F0E94D70EDE0145
:10550000A857B040652F0E94D70EDE01A757B040C4
:10551000652F0E94D70EDE011197652F0E94D70ECE
:10552000DE01652F0E94D70EDE011196652F0E94C5
:10553000D70EDE01A758BF4F652F0E94D70EDE01A0
:10554000A858BF4F652F0E94D70EDE01A958BF4F44
:10555000652F0E94D70EDE017FEF652F0E94D70EC8
:10556000089590E090930621109205211092022157
:1055700010920321109204219091D4219370909362
:10558000D4218AEE99E88093F8209093F9208AE458
:105590009AE88093FA209093FB201092FE201092BC
:1055A000FF2008950E94C10290910521992349F09E
:1055B0009395903110F076D006C09093052141D09C
:1055C00002C003D055D00C943F02C0E0D2E0E3E02B
:1055D000EBBFE0EFFEE10E94C310C0E1DAE154E16D
:1055E00074E080E09091D42198137727E0E0EBBF3E
:1055F000E2E1F0EB0E94AB0FCAE2DAE174E081E095
:105600009091D42198137727E8E1F0EB0E94AB0F3B
:10561000CCECDDE174E082E09091D42198137727FF
:10562000E0E2F0EB0E94AB0FC2EFDDE174E083E05B
:105630009091D42198137727EAE2F0EB0E94AB0F08
:10564000089590910221917091F4C0E0D2E0A0E021
:10565000BFEF8EEE9EE10880FD01E00D04900992FF
:105660000880FD01E00D049009920297A0F70895CB
:105670004091002150910121409545239091D421E2
:1056800042FD925040FD9E5F43FD915041FD9F5F62
:10569000943010F49093D421407519F091E09093D8
:1056A000052108959091F3209F649093F3209091A9
:1056B000F7209F649093F7209091D421913019F4B2
:1056C0000E94092D0895923019F40E94662D0895C4
:1056D000933019F40E943F2D08950E94702B089575
:1056E00095E09093062110920B21109205211092C3
:1056F00027211092312108950E9440033ED002D00C
:105700000C943F0240910021509101214095452386
:1057100090910B219923C9F49091272143FD9A95EB
:1057200041FD9395933040F490932721942F9A70E4
:1057300019F097E00E948903407F31F091E00E94C8
:10574000890391E090930B2108959091312143FDBD
:105750009A9541FD9395933040F490933121942F85
:105760009A7019F097E00E948903407F69F391E0F5
:105770000E9489030E94A32C0895E3E0EBBFE0EEB2
:10578000FDE30E94C3105CE060E073E080E09CE019
:10579000ABE2B0E1E2E0EBBFE4E9FBED0E94100B0D
:1057A0005CE060E073E080E09CE0A9E4B0E1E4E963
:1057B000FBED0E94100B5CE060E073E080E09CE099
:1057C000A7E6B0E1E4E9FBED0E94100BACECBDE014
:1057D0004EE15091272190910B21992311F0509186
:1057E0003121459FA00DB11D112460E877270E944B
:1057F000D70E90910B21992309F04CC05EE170E027
:10580000C8EDD4E0E0E0EBBFE0E3F0EB0E94AB0FCB
:1058100071E989E29BE17093D9218093DA21909319
:10582000DB211092DC211092DD211092DE211092FA
:10583000DF21A8E7BBE0C9EDD1E20E942B0E72E99F
:105840008DE094E07093D9218093DA219093DB214D
:10585000A6E9BBE00E942B0E73E98DE17093D9217C
:105860008093DA211092DB21A4EBBBE00E942B0E87
:10587000C6ECD4E1E0E0EBBFE6EAFAEA809127214A
:105880009EE5899FE00DF11D11245DE177270E94BF
:10589000AB0F08955EE170E0C8EDD4E0E0E0EBBF4F
:1058A000E4E4F0EB0E94AB0FC8EED3E1ECE5F0EBE3
:1058B0000E94AB0FCEEFD3E1E6E6F0EB0E94AB0F18
:1058C000C2E2D4E1E0E6F0EB0E94AB0F9091272119
:1058D000903011F449E250E0913011F44DE05FE076
:1058E000923011F44DE150E070E07093D921409373
:1058F000DA215093DB211092DC211092DD211092ED
:10590000DE211092DF21A8E7BBE0C9EDD1E20E94C1
:105910002B0E71E07093D9215091DB215F3019F487
:1059200050E15093DB21AEE0BCE0C9EDD1E20E9432
:105930002B0E72E07093D921A4EBBBE0C9EDD1E24C
:105940000E942B0E089591E090930621109205215C
:1059500008950E9440031FD011D0909102219370AE
:1059600059F4909105219F5F909305219E3F20F06F
:105970000E94D4150E9451160C943F02909101216F
:10598000992341F0909105219E5F9E3F08F094EF8E
:1059900090930521089590910521943F18F00E945D
:1059A000212B0895E3E0EBBFE0EDFCE50E94C3107E
:1059B0005DE17EE684E194E3C5E6DAE1E0E0EBBF99
:1059C000EAEAF0EB0E9434117EE684E494E6C5E650
:1059D000DAE1E0EEF0EB0E9434117EE684E794E930
:1059E000C5E6DAE1E6E1F1EB0E9434117EE684EAF5
:1059F00094ECC5E6DAE1E2E5F1EB0E9434117EE6D3
:105A000084ED94EFC5E6DAE1E0E9F1EB0E943411B0
:105A1000089592E09093062110920B21089519D0D9
:105A200003D00DD00C943F0290910B21992331F4B7
:105A30000E94911B992311F090930B21089580915E
:105A40000021909101218095892311F00E94B12AB3
:105A50000895662788E792E4A0E0B2E00E9414105F
:105A600090910B21992351F0CCE6D3E05DE17FEFDB
:105A7000E0E0EBBFE0E7F0EB0E94AB0F089594E0AD
:105A80009093062108950E9440030ED002D00C94FA
:105A90003F02409100215091012140954523407FD4
:105AA00011F00E94B12A0895662788E792E4A0E0E9
:105AB000B2E00E941410C1E7D3E0E0E0EBBFECECF1
:105AC000F1EB5BE17FEF0E94AB0F089593E09093C1
:105AD000062110920B211092052108950ED002D0BC
